{
  "_format": "hh-sol-artifact-1",
  "contractName": "Contract",
  "sourceName": "contracts/Contract.sol",
  "abi": [
    {
      "inputs": [],
      "stateMutability": "nonpayable",
      "type": "constructor"
    },
    {
      "inputs": [
        {
          "internalType": "uint256",
          "name": "id",
          "type": "uint256"
        },
        {
          "internalType": "string",
          "name": "D",
          "type": "string"
        }
      ],
      "name": "addOperation",
      "outputs": [],
      "stateMutability": "nonpayable",
      "type": "function"
    },
    {
      "inputs": [
        {
          "internalType": "address",
          "name": "op",
          "type": "address"
        }
      ],
      "name": "addToWhitelist",
      "outputs": [],
      "stateMutability": "nonpayable",
      "type": "function"
    },
    {
      "inputs": [],
      "name": "getOperations",
      "outputs": [
        {
          "components": [
            {
              "internalType": "uint256",
              "name": "id",
              "type": "uint256"
            },
            {
              "internalType": "string",
              "name": "data",
              "type": "string"
            },
            {
              "internalType": "uint256",
              "name": "status",
              "type": "uint256"
            }
          ],
          "internalType": "struct Contract.OperationData[]",
          "name": "",
          "type": "tuple[]"
        }
      ],
      "stateMutability": "view",
      "type": "function"
    },
    {
      "inputs": [
        {
          "internalType": "address",
          "name": "op",
          "type": "address"
        }
      ],
      "name": "removeFromWhitelist",
      "outputs": [],
      "stateMutability": "nonpayable",
      "type": "function"
    },
    {
      "inputs": [
        {
          "internalType": "uint256",
          "name": "id",
          "type": "uint256"
        },
        {
          "internalType": "uint256",
          "name": "s",
          "type": "uint256"
        }
      ],
      "name": "setStatus",
      "outputs": [],
      "stateMutability": "nonpayable",
      "type": "function"
    }
  ],
  "bytecode": "0x6080604052600060055534801561001557600080fd5b50600080546001600160a01b0319163390811782558152600160208190526040909120805460ff19169091179055610929806100526000396000f3fe608060405234801561001057600080fd5b50600436106100575760003560e01c806382e408131461005c5780638ab1d68114610071578063c5024b5314610084578063e43252d714610097578063f948e50a146100aa575b600080fd5b61006f61006a36600461059c565b6100c8565b005b61006f61007f3660046105be565b610112565b61006f6100923660046105ee565b6101a2565b61006f6100a53660046105be565b610237565b6100b26102b8565b6040516100bf919061066a565b60405180910390f35b3360009081526001602052604090205460ff166101005760405162461bcd60e51b81526004016100f79061071f565b60405180910390fd5b60009182526004602052604090912055565b6000546001600160a01b031633146101815760405162461bcd60e51b815260206004820152602c60248201527f4f6e6c79204f776e65722063616e2072656d6f7665206f74686572732066726f60448201526b6d2057686974656c6973742160a01b60648201526084016100f7565b6001600160a01b03166000908152600160205260409020805460ff19169055565b3360009081526001602052604090205460ff166101d15760405162461bcd60e51b81526004016100f79061071f565b6002805460018101825560009182527f405787fa12a823e0f2b7631cc41b3ba8828b3321ca811111fa75cd3aa3bb5ace01849055600580549161021383610756565b9091555050600083815260036020526040902061023182848361081c565b50505050565b6000546001600160a01b031633146102915760405162461bcd60e51b815260206004820181905260248201527f4f6e6c79204f776e65722063616e2077686974656c697374206f74686572732160448201526064016100f7565b6001600160a01b03166000908152600160208190526040909120805460ff19169091179055565b3360009081526001602052604090205460609060ff166102ea5760405162461bcd60e51b81526004016100f79061071f565b600060055467ffffffffffffffff8111156103075761030761077d565b60405190808252806020026020018201604052801561035c57816020015b61034960405180606001604052806000815260200160608152602001600081525090565b8152602001906001900390816103255790505b5090506000805b6005548110156104cb5760405180606001604052806002838154811061038b5761038b6108dd565b9060005260206000200154815260200160036000600285815481106103b2576103b26108dd565b9060005260206000200154815260200190815260200160002080546103d690610793565b80601f016020809104026020016040519081016040528092919081815260200182805461040290610793565b801561044f5780601f106104245761010080835404028352916020019161044f565b820191906000526020600020905b81548152906001019060200180831161043257829003601f168201915b505050505081526020016004600060028581548110610470576104706108dd565b906000526020600020015481526020019081526020016000205481525083838151811061049f5761049f6108dd565b602002602001018190525081806104b590610756565b92505080806104c390610756565b915050610363565b5060008167ffffffffffffffff8111156104e7576104e761077d565b60405190808252806020026020018201604052801561053c57816020015b61052960405180606001604052806000815260200160608152602001600081525090565b8152602001906001900390816105055790505b50905060005b828110156105945783818151811061055c5761055c6108dd565b6020026020010151828281518110610576576105766108dd565b6020026020010181905250808061058c90610756565b915050610542565b509392505050565b600080604083850312156105af57600080fd5b50508035926020909101359150565b6000602082840312156105d057600080fd5b81356001600160a01b03811681146105e757600080fd5b9392505050565b60008060006040848603121561060357600080fd5b83359250602084013567ffffffffffffffff8082111561062257600080fd5b818601915086601f83011261063657600080fd5b81358181111561064557600080fd5b87602082850101111561065757600080fd5b6020830194508093505050509250925092565b60006020808301818452808551808352604092508286019150828160051b8701018488016000805b8481101561071057603f198a8503018652825160608151865289820151818b880152805180838901528592505b808310156106dd578183018c015188840160800152918b01916106bf565b8781016080908101879052938b01518b890152988b0198601f01601f191690960190910194505091870191600101610692565b50919998505050505050505050565b60208082526018908201527f596f7520617265206e6f742077686974656c6973746564210000000000000000604082015260600190565b60006001820161077657634e487b7160e01b600052601160045260246000fd5b5060010190565b634e487b7160e01b600052604160045260246000fd5b600181811c908216806107a757607f821691505b6020821081036107c757634e487b7160e01b600052602260045260246000fd5b50919050565b601f82111561081757600081815260208120601f850160051c810160208610156107f45750805b601f850160051c820191505b8181101561081357828155600101610800565b5050505b505050565b67ffffffffffffffff8311156108345761083461077d565b610848836108428354610793565b836107cd565b6000601f84116001811461087c57600085156108645750838201355b600019600387901b1c1916600186901b1783556108d6565b600083815260209020601f19861690835b828110156108ad578685013582556020948501946001909201910161088d565b50868210156108ca5760001960f88860031b161c19848701351681555b505060018560011b0183555b5050505050565b634e487b7160e01b600052603260045260246000fdfea26469706673582212208473e7ddf3c2f2e74399020c518778f77625074d9c65749b63dfd800b8b0911564736f6c63430008110033",
  "linkReferences": {},
  "deployedLinkReferences": {}
}